:020000040800F2
:100000006010002001010008F1290008F329000810
:10001000F7290008FB290008FF290008000000005C
:10002000000000000000000000000000032A00089B
:10003000052A000800000000072A0008092A000815
:100040001B0100081B0100081B0100081B01000820
:100050001B0100081B0100081B0100081B01000810
:100060001B0100081B0100081B0100081B01000800
:100070001B0100081B0100081B0100081B010008F0
:100080001B0100081B010008314500081B01000886
:100090001B0100081B0100081B0100081B010008D0
:1000A0001B0100081B0100081B0100081B010008C0
:1000B0006F41000809420008F74000081B010008D2
:1000C0001B0100081B0100081B0100081B010008A0
:1000D0001B010008793F0008C73F000815400008D1
:1000E0001B0100081B0100081B010008DFF80CD0F1
:1000F00006F066FB00480047CB290008601000208E
:100100000648804706480047FEE7FEE7FEE7FEE7B1
:10011000FEE7FEE7FEE7FEE7FEE7FEE763280008EE
:10012000ED00000831490143314A1160704770B554
:10013000002100230F22C47804B32D4C246804F45A
:10014000E064C4F5E064210AC1F10403CA404478C4
:1001500004FA03F18478144021430901254C067800
:10016000A155047804F01F050124AC4005786D11F9
:10017000AD0005F1E025C5F8004109E0047804F080
:100180001F050124AC401C4D0678761145F8264029
:1001900070BD1A4A0A400243154B1B1F1A60704774
:1001A00039B1134A121D12680243114B1B1D1A600C
:1001B00006E00F4A121D126882430D4B1B1D1A6088
:1001C0007047042808D14FF0E021096941F004018B
:1001D0004FF0E022116107E04FF0E021096921F0C2
:1001E00004014FF0E0221161704700000000FA05A1
:1001F0000CED00E000E400E080E100E080FFFF1F84
:1002000010B50446FA48844208D10121401501F096
:100210005DF90021601501F059F917E0F5488442B5
:1002200008D10121001501F051F90021201501F03C
:100230004DF90BE0F048844208D10121C80301F0D8
:1002400045F900214FF4004001F040F910BD30B5F0
:100250000246002000235068E84C20400D790C68CD
:1002600044EA0524204350609068E54C2040D1E9E1
:1002700002542C434D7944EA450420439060D06AEF
:1002800020F470000C7C641EE4B2234340EA035067
:10029000D06230BD00210160017141718160C16097
:1002A00001210174704721B1826842F0010282602D
:1002B00003E0826822F001028260704721B1826807
:1002C00042F48072826003E0826822F4807282606D
:1002D000704710B50023CBB21AB144681C43446088
:1002E00002E044689C43446010BD816841F008010D
:1002F00081607047014600208A6802F008020AB156
:10030000012000E000207047816841F00401816015
:100310007047014600208A6802F004020AB10120F9
:1003200000E00020704721B1826842F4A0028260A0
:1003300003E0826822F4A002826070470146002038
:100340008A6802F480020AB1012000E000207047B0
:1003500010B50A4600210023416821F46041531E74
:1003600041EA4331416010BD21B1426842F400626C
:10037000426003E0426822F4006242607047F0B5D8
:1003800004460D4600200021092D11DDE068A5F18D
:100390000A0606EB4607072606FA07F18843A5F189
:1003A0000A0606EB460603FA06F10843E0600CE095
:1003B000206905EB4507072606FA07F1884305EB98
:1003C000450603FA06F108432061072A0FDA606B3D
:1003D000561E06EB86071F2606FA07F18843561EAF
:1003E00006EB860605FA06F10843606322E00D2A53
:1003F0000FDA206BD61F06EB86071F2606FA07F1D9
:100400008843D61F06EB860605FA06F108432063EB
:1004100010E0E06AA2F10D0606EB86071F2606FA39
:1004200007F18843A2F10D0606EB860605FA06F1F0
:100430000843E062F0BD21B1826842F4801282601C
:1004400003E0826822F48012826070470146C86C23
:1004500080B2704766484C300068704721B14268EE
:1004600042F48062426003E0426822F480624260AB
:10047000704721B1426842F48052426003E0426812
:1004800022F48052426070470A460021816821F4BC
:10049000E04111438160704721B1826842F400421B
:1004A000826003E0826822F400428260704721B1DA
:1004B000826842F40212826003E0826822F402122F
:1004C00082607047014600208A6802F400120AB177
:1004D000012000E000207047F0B5044615460020DA
:1004E00000220026092911DDE068A1F10A0707EBC7
:1004F000470C072707FA0CF29043A1F10A0707EB14
:10050000470703FA07F21043E0600CE0206901EBB3
:10051000410C072707FA0CF2904301EB410703FA5D
:1005200007F210432061A06BC0F30156EF1C06F1E7
:10053000010CA7EB0C0707EB870C1F2707FA0CF23F
:100540009043EF1C06F1010CA7EB0C0707EB8707A4
:1005500001FA07F21043A063F0BD10B50A4600216E
:100560000023816B21F44011531E41EA0351816342
:1005700010BD08B5002300930090009B0B4400932E
:10058000009B1A6008BD08B502460020009000924A
:1005900001F12800009B184400900098006880B288
:1005A00008BD0A4600214168164B194011434160BD
:1005B00070474162826270470A460021416821F01B
:1005C0001F0111434160704740B109490831096872
:1005D00041F40001064A0832116007E0044908317D
:1005E000096821F40001024A0832116070470000D6
:1005F0000024014000280140003C0140FFFEF0FFC4
:10060000FDF7F1FFFFFD3FFF0246002013680B409E
:100610000BB1012000E000207047CA430260704720
:1006200070B502460020002300240B125568CEB29C
:1006300005EA060415681D4015B10CB1012000E063
:10064000002070BD00220A12D343036070470000EF
:1006500001684FF6FE7211400160002101604160A7
:100660008160C1608D49884208D18C490839496848
:1006700041F00F01894A083A51608AE087491431F4
:10068000884208D185490839496841F0F001834A18
:10069000083A51607DE081492831884208D17F497C
:1006A0000839496841F470617C4A083A516070E049
:1006B0007A493C31884208D178490839496841F47F
:1006C0007041764A083A516063E07449503188427B
:1006D00008D172490839496841F470216F4A083AD3
:1006E000516056E06D496431884208D16B49083940
:1006F000496841F47001694A083A516049E0674924
:100700007831884208D165490839496841F07061FB
:10071000624A083A51603CE06149884206D1011FB3
:10072000096841F00F01021F116032E05C49143189
:10073000884208D15A49091F096841F0F001584A16
:10074000121F116025E056492831884208D15449CA
:10075000091F096841F47061514A121F116018E0C5
:100760004F493C31884208D14D49091F096841F47D
:1007700070414B4A121F11600BE0494950318842C9
:1007800007D14749091F096841F47021444A121FE3
:100790001160704710B50022026847F6F0739A4363
:1007A0000C6A8B6823430C6923434C6923438C698F
:1007B0002343CC6923434C6A23438C6A23431A4363
:1007C0000260CB6843600B6883604B68C36010BDF8
:1007D0000021016041608160C1600161416181610E
:1007E000C161016241628162704721B1026842F0D9
:1007F0000102026004E002684FF6FE731A400260D4
:1008000070471AB103680B43036002E003688B432F
:1008100003607047416070470146486880B2704786
:1008200001460020002201F080531BB11C4B083B05
:100830001A6802E0194B083B1A6802EA01030BB17F
:10084000012000E00020704700F0805119B11449E8
:10085000091F086002E011490839486070470146E5
:100860000020002201F080531BB10D4B083B1A6899
:1008700002E00A4B083B1A6802EA01030BB10120AF
:1008800000E00020704700F0805119B10449091FB1
:10089000086002E0014908394860704708000240DA
:1008A0000804024001460020FE4A106800F03800AB
:1008B000084310607047FB49096821F00801F94AB4
:1008C000116011460968014311607047F5490968D4
:1008D00021F01001F34A11601146096801431160CB
:1008E0007047F148EF494860F04848607047EE486B
:1008F000EC494860ED4848607047EA48006940F0BC
:100900008000E84908617047E648006940F08000CF
:10091000E449086170470420E249C96801F0010117
:1009200009B101200EE0DF49C96801F0040109B1F5
:10093000022007E0DB49C96801F0100109B103207A
:1009400000E00420704700B502460423FFF7E3FFF0
:10095000034603E0FFF7DFFF0346521E012B01D1E0
:10096000002AF7D102B90523184600BD30B5044668
:1009700004254FF43020FFF7E6FF0546042D17D17C
:10098000C848006940F00200C64908610846446151
:10099000006940F0400008614FF43020FFF7D3FFBA
:1009A0000546C048006941F6FD710840BD4908612F
:1009B000284630BD10B504244FF43020FFF7C3FFA4
:1009C0000446042C16D1B748006940F00400B5492C
:1009D00008610846006940F0400008614FF430208B
:1009E000FFF7B1FF0446AF48006941F6FB710840CC
:1009F000AC490861204610BD00B502460423FFF74C
:100A00008AFF034603E0FFF786FF0346521E012BD1
:100A100001D1002AF7D102B90523184600BD10B54F
:100A200004244FF43020FFF7E7FF0446042C16D1CE
:100A30009C48006940F004009A4908610846006932
:100A400040F0400008614FF43020FFF7D5FF044626
:100A50009448006941F6FB710840924908612046BC
:100A600010BD00208F49C96901F0020109B10120C0
:100A700000E00020704730B5A5250424FFF7F1FF02
:100A800000B100254FF43020FFF75DFF0446042C31
:100A90003AD185488349886084488860084600695F
:100AA00040F0200008610846006940F040000861FD
:100AB0004FF43020FFF747FF0446042C1BD1794840
:100AC000006941F6DF71084076490861084600690F
:100AD00040F01000086176480580E002FFF733FF20
:100AE0000446052C10D06F48006941F6EF710840AC
:100AF0006C49086108E0052C06D06A48006941F697
:100B0000EF71084067490861204630BD78B5064658
:100B10000C46042500200090E802FFF714FF05466C
:100B2000042D24D15F48006940F001005D4908614F
:100B30003480E802FFF707FF0546042D10D1B01CF2
:100B40000090200C00990880E802FFF7FCFE0546A3
:100B50005448006941F6FE7108405249086106E0B8
:100B60005048006941F6FE7108404E490861284628
:100B700078BD70B504460D460426F002FFF7E3FE8B
:100B80000646042E11D14748006940F0010045494E
:100B900008612580F002FFF7D6FE0646414800694D
:100BA00041F6FE7108403F490861304670BD70B59E
:100BB00005460E460424E002FFF7C5FE0446042C59
:100BC00017D1394837498860384888600846006935
:100BD00040F0100008612E80E002FFF7B4FE0446EA
:100BE000052C06D02F48006941F6EF7108402D49C9
:100BF0000861204670BD2DE9F04304464FF6FF76AC
:100C00003746B046B1460425E443E6B2C4F30727AD
:100C1000C4F307484FEA1469E802FFF794FE05465B
:100C2000042D49D120481F49886020488860084623
:100C3000006940F010000861FF2E06D01C48083003
:100C40000680E802FFF77FFE0546042D08D1FF2F3E
:100C500006D017480A300780E802FFF774FE054601
:100C6000042D0AD1B8F1FF0F07D011480C30A0F8BD
:100C70000080E802FFF767FE0546042D0AD1B9F1AE
:100C8000FF0F07D00A480E30A0F80090E802FFF7E7
:100C90005AFE0546052D0FD00248006941F6EF7156
:100CA000084007E00020024023016745AB89EFCDF3
:100CB00000F8FF1F664908612846BDE8F08330B59B
:100CC000054604244FF43020FFF73DFE0446042C73
:100CD00041D160485E4988605F4888600846006985
:100CE00040F0200008610846006940F040000861BB
:100CF0004FF43020FFF727FE0446042C22D154483D
:100D0000006941F6DF7108405149086108460069F1
:100D100040F0100008611DB100205049088002E039
:100D2000A5204E4908804FF43020FFF70CFE044602
:100D3000052C10D04648006941F6EF71084044493F
:100D4000086108E0052C06D04148006941F6DF71D2
:100D500008403F490861204630BDF0B505460E46C3
:100D6000174604243B483A4988603B488860E002C3
:100D7000FFF7E9FD0446042C19D13548006940F01D
:100D800010003349086147F0F800304328433349E5
:100D9000891C0880E002FFF7D6FD0446052C06D02A
:100DA0002B48006941F6EF71084029490861204647
:100DB000F0BD2748C069800870472548006A704721
:100DC00000202349096801F0200109B1012000E059
:100DD0000020704729B11E4A126902431C4B1A6158
:100DE00004E01B4A12698243194B1A61704701469D
:100DF0000020012908D1164AD26902F001020AB185
:100E0000012008E0002006E0114AD2680A400AB139
:100E1000012000E0002070470D49C86070470420A1
:100E20000B49C96801F0010109B101200EE0084930
:100E3000C96801F0040109B1022007E00449C9684A
:100E400001F0100109B1032000E004207047000008
:100E50000020024023016745AB89EFCD00F8FF1F5A
:100E600010B50446CC48844208D10121042000F08A
:100E70002DFB0021042000F029FB46E0C7488442F6
:100E800008D10121082000F021FB0021082000F0FA
:100E90001DFB3AE0C248844208D10121102000F035
:100EA00015FB0021102000F011FB2EE0BD4884420C
:100EB00008D10121202000F009FB0021202000F0B2
:100EC00005FB22E0B848844208D10121402000F00F
:100ED000FDFA0021402000F0F9FA16E0B348844200
:100EE00008D10121802000F0F1FA0021802000F0DB
:100EF000EDFA0AE0AE48844207D10121801500F0E6
:100F0000E5FA0021A01500F0E1FA10BD10B50121AD
:100F1000084600F0DBFA0021012000F0D7FA10BDEE
:100F20002DE9F04102460025002600200023002480
:100F3000002791F803C00CF00F0591F803C00CF0E6
:100F4000100CBCF1000F03D091F802C04CEA05056B
:100F500091F800C0BCF1000F31D0146800202BE0E4
:100F60004FF0010C0CFA00F3B1F800C00CEA0306D4
:100F70009E4220D183004FF00F0C0CFA03F7BC43C4
:100F800005FA03FC4CEA040491F803C0BCF1280FF5
:100F900006D14FF0010C0CFA00FCC2F814C00AE0B4
:100FA00091F803C0BCF1480F05D14FF0010C0CFAC9
:100FB00000FCC2F810C0401C0828D1D31460B1F85E
:100FC00000C0BCF1FF0F34DD546800202EE000F1BA
:100FD000080C4FF0010808FA0CF3B1F800C00CEA55
:100FE00003069E4221D183004FF00F0C0CFA03F749
:100FF000BC4305FA03FC4CEA040491F803C0BCF1BD
:10100000280F05D100F1080C08FA0CF8C2F814807A
:1010100091F803C0BCF1480F07D100F1080C4FF064
:10102000010808FA0CF8C2F81080401C0828CED33A
:101030005460BDE8F0814FF6FF710180022181709C
:101040000421C17070470246002093680B400BB129
:10105000012000E0002070470146886880B2704798
:1010600002460020D3680B400BB1012000E00020B5
:1010700070470146C86880B270470161704741619E
:1010800070470AB1016100E041617047C16070477B
:101090004FF480320A438261816182618269826990
:1010A000704702460020434B18684FF68073184083
:1010B00040EA021008433F4B186070473E49C86140
:1010C0007047F0B50A46002300240021002500F0F7
:1010D0000046B6F1004F02D1364EF16901E0354EBF
:1010E0007168C0F3034583B200F44016B6F5401FA3
:1010F00008D121F070612F4E766826F070662D4F72
:101100007E6012E000F48016B6F5801F06D103263B
:1011100006FA05F4A14341F0706106E0460D360180
:1011200003FA06F6B14341F0706122B1460D360173
:1011300003FA06F6314300F00046B6F1004F02D143
:101140001C4EF16101E01B4E7160F0BD30B5002214
:101150008B071C0F0F2303FA04F2164B08338C1075
:1011600053F824309343134C08348D1044F8253041
:1011700023468C1053F824308C07240F00FA04F413
:1011800023430C4C08348D1044F8253030BD0A49F7
:10119000DC3108607047000000080140000C01408D
:1011A000001001400014014000180140001C0140E3
:1011B000002001400000014000002042DF4800689C
:1011C00040F00100DD49086008464068DC490840FD
:1011D000DA49486008460068DA490840D74908609B
:1011E0000846006820F4802008600846406820F423
:1011F000FE0048604FF41F0088607047CF490968BF
:1012000021F48031CD4A11601146096821F4802112
:101210001160B0F5803F03D0B0F5802F0ED106E00D
:10122000C649096841F48031C44A116007E0C349E6
:10123000096841F4A021C14A116000E000BF00BF6D
:10124000704710B501460022002300204A11012AF0
:1012500002D1BA4C236806E0022A02D1B74C236AB5
:1012600001E0B64C636A01F01F02012494401C4067
:101270000CB1012000E0002010BD38B50020009026
:101280000024002500BF3120FFF7DBFF0546009852
:10129000401C00900098B0F5A06F01D0002DF2D056
:1012A0003120FFF7CEFF08B1012400E000242046E2
:1012B00038BD01460020A14A106820F0F80040EA3D
:1012C000C10010607047A0490860704702460020C6
:1012D0009A4B586820F47C1042EA01031843974B5C
:1012E0005860704798490866704701460020934A45
:1012F000506820F003000843506070478F484068F2
:1013000000F00C007047014600208C4A506820F025
:10131000F00008435060704701460020874A50683B
:1013200020F4E06008435060704701460020834A83
:10133000506820F4605040EAC1005060704729B105
:101340007E4A527A02437D4B5A7204E07B4A527ABB
:1013500082437A4B5A7270477B49D8310860704794
:1013600001460020754A506820F440400843506010
:1013700070470021714A20321170704A82F82010A3
:10138000012802D004280AD104E001216B4A20324E
:10139000117005E00521694A2032117000E000BF9C
:1013A00000BF70476949086070476449096A014392
:1013B000624A11627047654944390860704730B528
:1013C00000210022002400235C4D6D6805F00C0113
:1013D00021B1042905D0082923D105E05C4D056021
:1013E00022E05B4D05601FE0544D6D6805F47012FE
:1013F000524D6D6805F48034022505EB92421CB90C
:10140000544D554305600BE04C4D6D6805F40035B7
:101410001DB1504D5543056002E04D4D55430560EB
:1014200002E04B4D056000BF00BF444D6D6805F004
:10143000F0010909484D6B5C0568DD4045603F4D92
:101440006D6805F4E061090A434D6B5C4568DD4059
:1014500085603A4D6D6805F46051C90A3E4D6B5C7C
:101460004568DD40C560354D6D6805F44041890B28
:101470003A4D6B5CC568B5FBF3F5056130BD29B12C
:101480002E4A526902432D4B5A6104E02B4A52699D
:1014900082432A4B5A61704729B1284A9269024314
:1014A000264B9A6104E0254A92698243234B9A6154
:1014B000704729B1214AD2690243204BDA6104E026
:1014C0001E4AD26982431D4BDA61704729B11B4A1B
:1014D000D2680243194BDA6004E0184AD2688243AA
:1014E000164BDA60704729B1144A12690243134B54
:1014F0001A6104E0114A12698243104B1A61704765
:1015000012494039086070470F49C86470470B4959
:10151000C87170470948406A40F0807007494862C6
:10152000704701460020054A92680A400AB101202E
:1015300000E00020704701498872704700100240A7
:101540000000FFF8FFFFF6FE000042428004424226
:1015500000127A0000093D00000000201000002069
:1015600010B50446FE48844208D10121C014FFF79B
:10157000ADFF0021E014FFF7A9FFC4E0B4F1804FF4
:1015800008D101210846FFF7AEFF00210120FFF737
:10159000AAFFB8E0F348844208D101210220FFF7F6
:1015A000A2FF00210220FFF79EFFACE0EE4884423C
:1015B00008D101210420FFF796FF00210420FFF746
:1015C00092FFA0E0E948844208D101210820FFF7FA
:1015D0008AFF00210820FFF786FF94E0E448844258
:1015E00008D101211020FFF77EFF00211020FFF716
:1015F0007AFF88E0DF48844208D101212020FFF7EC
:1016000072FF00212020FFF76EFF7CE0DA48844261
:1016100008D101214014FFF759FF00216014FFF7A2
:1016200055FF70E0D548844209D10121C804FFF775
:101630004DFF00214FF40020FFF748FF63E0D04842
:10164000844209D101210805FFF740FF00214FF432
:101650008010FFF73BFF56E0CA48844209D10121C0
:101660004805FFF733FF00214FF40010FFF72EFF6E
:1016700049E0C548844208D101214020FFF733FFEB
:1016800000214020FFF72FFF3DE0C048844208D1F1
:1016900001218020FFF727FF00218020FFF723FF93
:1016A00031E0BB48844208D101218015FFF71BFFC0
:1016B0000021A015FFF717FF25E0B648844209D1A5
:1016C00001210804FFF702FF00214FF48030FFF7EB
:1016D000FDFE18E0B048844209D101214804FFF71B
:1016E000F5FE00214FF40030FFF7F0FE0BE0AB48B1
:1016F000844208D101218804FFF7E8FE00214FF45D
:101700008020FFF7E3FE10BD00220288944B984230
:101710000ED0994B98420BD0B0F1804F08D0914B2E
:10172000984205D0904B984202D0904B984204D1F9
:101730004FF68F731A404B881A438D4B984207D04F
:101740008C4B984204D04FF6FF431A40CB881A4383
:1017500002808B8883850B880385814B98420BD050
:10176000854B984208D08B4B984205D08A4B9842C3
:1017700002D08A4B984201D10B7A038601238382DF
:10178000704770B5002400220023058C4FF6FE76CA
:1017900035400584028C8388048B4FF68F752C406E
:1017A000B51E2C400D882C43751E2A400D892A43F6
:1017B0004D882A436A4DA8420BD06F4DA84208D0ED
:1017C000744DA84205D0744DA84202D0734DA84272
:1017D00013D14FF6F7752A404D892A434FF6FB7512
:1017E0002A408D882A434FF6FF652B404FF6FF5560
:1017F0002B408D892B43CD892B4383800483CD8857
:101800008586028470BD70B5002400220023058CFB
:101810004FF6EF7635400584028C8388048B48F6BA
:10182000FF752C404FF6FF452C400D884FF6FF7694
:1018300006EA05252C434FF6DF752A400D8906EA96
:1018400005152A434D8806EA05152A43444DA8424A
:1018500002D0494DA8421DD14FF67F752A404D89CF
:101860004FF6FF7606EA05152A434FF6BF752A4064
:101870008D8806EA05152A434FF6FF352B404FF2B7
:10188000FF752B408D8906EA85052B43CD8906EA35
:1018900085052B4383800483CD880587028470BD32
:1018A00070B5002400220023058C4FF6FF663540FA
:1018B0000584028C8388848B4FF68F752C404FF6FD
:1018C000FC752C400D882C434FF6FF552A400D899E
:1018D0004FF6FF7606EA05252A434D8806EA0525D8
:1018E0002A431F4DA84202D0234DA8421DD14FF2DA
:1018F000FF752A404D894FF6FF7606EA05252A43F3
:101900004FF6FF352A408D8806EA05252A434EF614
:10191000FF752B404DF6FF752B408D8906EA0515A6
:101920002B43CD8906EA05152B4383808483CD881C
:101930008587028470BD70B5002200230024058CC9
:101940004EF6FF7635400584038C8488828B48F6FA
:10195000FF752A404FF6FF452A400D8820E0000021
:10196000002C01400004004000080040000C004032
:10197000001000400014004000340140004C0140C1
:10198000005001400054014000180040001C00407D
:101990000020004000400140004401400048014058
:1019A0004FF6FF7606EA05252A434DF6FF752B40D4
:1019B0000D8906EA05352B434D8806EA05352B438C
:1019C000FA4DA84202D0FA4DA84208D14BF6FF7555
:1019D0002C408D894FF6FF7606EA85152C438480CE
:1019E0008283CD88A0F84050038470BD828B4FF273
:1019F000FF331A408283828B4FF6FF7303EA012381
:101A00001A4382837047F0B50C4615460022002128
:101A10000026078C4EF6FF7C07EA0C070784828BB2
:101A2000018C4FF6FF7707EA043640F6FF473A404D
:101A30004FF6FF7707EA05273A434FF6FF7707EAA5
:101A400003373A43D94FB8420ED0D94FB8420BD0E2
:101A5000B0F1804F08D0D74FB84205D0D64FB8422A
:101A600002D0D64FB84206D14DF6FF77394046F442
:101A70008057394305E047F6FF57394044F4805713
:101A8000394382830184F0BD828B4FF6F3731A4091
:101A90008283828B0A4382837047F0B50C461546D9
:101AA000002200210026078C4FF6FF6C07EA0C0786
:101AB0000784828B018C4FF6FF7707EA04264FF6E6
:101AC0000C773A404FF6FF7707EA03172F433A4364
:101AD000B64FB8420ED0B64FB8420BD0B0F1804FDF
:101AE00008D0B44FB84205D0B34FB84202D0B34F7C
:101AF000B84206D14FF6FF57394046F48077394354
:101B000005E04FF2FF57394044F480773943828330
:101B10000184F0BD028B4FF2FF331A400283028B27
:101B20004FF6FF7303EA01231A4302837047F0B5AF
:101B30000C461546002200210026078C4FF6EF7C4C
:101B400007EA0C070784028B018C4FF6FF7707EA40
:101B5000041640F6FF473A404FF6FF7707EA03378F
:101B60003A434FF6FF7707EA05273A438F4FB842CB
:101B70000ED08F4FB8420BD0B0F1804F08D08D4FB0
:101B8000B84205D08C4FB84202D08C4FB84206D133
:101B90004FF6DF77394046F01007394305E04FF63E
:101BA0005F77394044F01007394302830184F0BD68
:101BB000028B4FF6F3731A400283028B0A430283AF
:101BC0007047F0B50C46154600220021068C4FF6F2
:101BD000FE773E400684028B018C4FF60C76324035
:101BE0007E1C06EA03162E433243704EB0420ED0DE
:101BF0006F4EB0420BD0B0F1804F08D06D4EB04266
:101C000005D06D4EB04202D06C4EB04206D14FF6B8
:101C1000FD76314044F00106314305E04FF6F5769C
:101C2000314044F00106314302830184F0BD70B5B8
:101C300005460C465D4885420ED05D4885420BD076
:101C4000B5F1804F08D05B48854205D05A4885429F
:101C500002D05A48854200D100E000BF208850B928
:101C60002389A28861882846FFF7ABFFE1882846D0
:101C7000FFF79EFF25E0208804280AD12389A28847
:101C800061882846FFF753FFE1882846FFF742FFA7
:101C900017E0208808280AD12389A288618828466D
:101CA000FFF7FBFEE1882846FFF7EEFE09E02389F7
:101CB000A28861882846FFF7A6FEE1882846FFF73C
:101CC00095FE70BD2DE9F04105460C460026012722
:101CD000608808B9022600E00026A088012801D10A
:101CE000022700E001272088A0B92389A288618803
:101CF0002846FFF766FFE1882846FFF759FF23894A
:101D00003A4631462846FFF712FFE1882846FFF79A
:101D100001FF13E02389A28861882846FFF707FFA7
:101D2000E1882846FFF7F6FE23893A4631462846E1
:101D3000FFF747FFE1882846FFF73AFFBDE8F0814B
:101D40000A884B881A438B881A43CB881A430B891D
:101D50001A434B891A438B891A43A0F844207047D1
:101D60004FF6FF71818000210180C18041800172A6
:101D700070470021018041808180C18001814181C3
:101D80008181C181704700210180418001218180D2
:101D90000021C18001817047002101804180818044
:101DA000C18001814181818170470000002C014088
:101DB000003401400004004000080040000C0040D6
:101DC00021B1028842F00102028004E002884FF64D
:101DD000FE731A400280704731B1B0F8442042F4DB
:101DE0000042A0F8442005E0B0F84420C2F30E02FF
:101DF000A0F8442070471AB183890B43838102E025
:101E000083898B43838170478182704741EA020353
:101E1000A0F8483070471AB183890B43838102E0F0
:101E200083898B438381704701894FF6F872114093
:101E3000018170470A46002101894FF68F731940CE
:101E400011430181704730B504460D4629462046AE
:101E5000FFF7F0FF208940F00700208130BD2DE919
:101E6000F04104460D4616461F46602D06D13B46FE
:101E7000012231462046FFF75AFE05E03B4601228B
:101E800031462046FFF79DFE29462046FFF7D2FF48
:101E9000208940F007002081BDE8F08130B50C4674
:101EA00000210189C9B24FF6FF7505EA03251543E4
:101EB00025432943018130BD2DE9F04105460E46F9
:101EC00017469846002443463A4631462846FFF7CF
:101ED000E5FF2C894FF6F870044044F007044FF6F4
:101EE0008F70044044F070042C81BDE8F081F0B59F
:101EF00004460D4616461F463B46324629462046B6
:101F0000FFF7CCFF208940F480402081F0BD01859F
:101F1000828270470A46002101884FF68F7319406C
:101F2000114301807047F0B50C4615461E4600214E
:101F3000002200230189028B038C4FF6F877394089
:101F400021434FF6FC473A4040F201173A434FF61F
:101F5000DD773B404FF6FF7707EA06172F433B43F9
:101F6000018102830384F0BD0A460021018B4FF6F4
:101F70008F7319401143018370470A460021018B7A
:101F800048F6FF7319404FF6FF7303EA0223194323
:101F9000018370470A460021818B4FF68F731940E9
:101FA0001143818370470A460021818B48F6FF73F5
:101FB00019404FF6FF7303EA0223194381837047E8
:101FC00021B1028842F08002028004E002884FF6CC
:101FD0007F731A400280704721B1828842F0040268
:101FE000828004E082884FF6FB731A40828070473B
:101FF00021B1828842F00802828004E082884FF694
:10200000F7731A408280704721B1828842F0010242
:10201000828004E082884FF6FE731A408280704707
:102020000A460021018B4FF6F773194011430183D3
:1020300070470A460021018B4FF2FF7319404FF69B
:10204000FF7303EA02231943018370470A46002104
:10205000818B4FF6F77319401143818370470A460D
:102060000021818B4FF2FF7319404FF6FF7303EA93
:1020700002231943818370470A460021018B4FF6E2
:10208000FB7319401143018370470A460021018BFD
:102090004FF6FF3319404FF6FF7303EA022319434B
:1020A000018370470A460021818B4FF6FB7319406C
:1020B0001143818370470A460021818B4FF6FF331D
:1020C00019404FF6FF7303EA0223194381837047D7
:1020D0000A460021018B4FF67F731940114301839B
:1020E00070470A460021018BC1F30E014FF6FF73C2
:1020F00003EA02231943018370470A460021818BBA
:102100004FF67F7319401143818370470A460021BF
:10211000818BC1F30E014FF6FF7303EA02231943CB
:10212000818370470A460021018C4FF6FD731940E8
:102130001143018470470A460021018C4FF6F77362
:1021400019401143018470470A460021018C4FF663
:10215000DF7319404FF6FF7303EA0213194301843A
:1021600070470A460021018C4FF67F7319404FF6E5
:10217000FF7303EA02131943018470470A460021E2
:10218000018C4FF6FF5319404FF6FF7303EA022309
:102190001943018470470A460021018C4FF2FF73F6
:1021A00019404FF6FF7303EA022319430184704775
:1021B0000A460021018C4DF6FF7319404FF6FF735C
:1021C00003EA023319430184704730B50023012428
:1021D0008C40A3B2048C9C430484048C02FA01F565
:1021E000ADB22C43048430BD30B5002304248C40B0
:1021F000A3B2048C9C430484048C02FA01F5ADB2B2
:102200002C43048430BD70B50346002000241846DA
:10221000183001258D40ACB21D8CA5431D8409B139
:10222000082909D100EB6100056825F070050560FB
:102230000568154305600EE00D1FC5F34E052844E3
:10224000056825F4E045056005684FF6FF7606EA67
:1022500002263543056070BD21B1028842F00202BA
:10226000028004E002884FF6FD731A400280704736
:1022700021B1028842F00402028004E002884FF695
:10228000FB731A400280704721B1828842F08002BD
:10229000828004E082884FF67F731A408280704704
:1022A00002884FF6F7731A40028002880A430280C0
:1022B000704782884FF68F731A40828082880A4363
:1022C0008280704702894FF6F8731A4002810289B2
:1022D0000A430281704702894FF67F731A400281D8
:1022E00002890A4302817047818470478185704763
:1022F000818670470187704781877047A0F840103A
:10230000704702884FF6FF431A40028002880A4352
:10231000028070470146888E70470146088F7047DB
:102320000146888F70470146B1F84000704701466A
:10233000888C70470146088D704702460020138A3A
:102340000B400BB1012000E000207047CA4302821D
:10235000704730B50246002000230024158A05EAA4
:102360000103958905EA010413B10CB1012000E0D5
:10237000002030BDCA4302827047000010B50446F9
:10238000FB48844209D101218803FFF79FF800210F
:102390004FF48040FFF79AF832E0F648844209D1C2
:1023A00001214804FFF79FF800214FF40030FFF7A8
:1023B0009AF825E0F048844209D101218804FFF70A
:1023C00092F800214FF48020FFF78DF818E0EB48D9
:1023D000844209D10121C804FFF785F800214FF498
:1023E0000020FFF780F80BE0E548844208D1012186
:1023F0000805FFF778F800214FF48010FFF773F815
:1024000010BD2DE9F04786B005460E460024A246D1
:1024100000BFA1460027B08900B100BF2F462C8A1B
:102420004CF6FF700440F08804432C82AC894EF6D1
:10243000F3100440B088318908437189084304438C
:10244000AC81AC8A4FF6FF400440B0890443AC82B3
:1024500001A8FEF7B4FFC648874202D1DDF810A0FC
:1024600001E0DDF80CA0A88900F4004040B10AEBBF
:10247000CA0000EB0A1031684900B0FBF1F807E030
:102480000AEBCA0000EB0A1031688900B0FBF1F8D2
:102490006420B8FBF0F004012009642101FB1089DD
:1024A000A88900F4004040B1322000EBC900B0FB25
:1024B000F1F000F00700044308E0322000EB0910BF
:1024C0006421B0FBF1F000F00F0004432C8106B052
:1024D000BDE8F0874FF41651016000218180C18072
:1024E00001810C21418100218181704710B5024694
:1024F0000020108A4FF2FF0318400B884C882343BA
:102500008C882343CC8823431843108210BD0021BC
:10251000018041808180C180704721B1828942F46D
:102520000052828104E082894DF6FF731A40828155
:102530007047F0B50346002400260025002040F631
:102540006A17B94200D100BF1846C1F3421401F026
:102550001F06012707FA06F5012C01D10C3004E013
:10256000022C01D1103000E014301AB107682F435B
:10257000076002E00768AF430760F0BD1AB1838AC5
:102580000B43838202E0838A8B4383827047028AF3
:102590004FF6F0731A400282028A0A4302827047A1
:1025A00082894FF2FF731A40828182890A438281B5
:1025B000704721B1828942F00202828104E082895F
:1025C0004FF6FD731A4082817047028A4FF6DF731F
:1025D0001A400282028A0A430282704721B1028AAB
:1025E00042F48042028204E0028A4BF6FF731A40F2
:1025F00002827047C1F308028280704701468888D2
:10260000C0F308007047818941F001018181704762
:10261000028BD2B20283028B42EA0122028370470C
:10262000028B02F47F420283028B0A4302837047CB
:1026300021B1828A42F02002828204E0828A4FF62F
:10264000DF731A408282704721B1828A42F0100201
:10265000828204E0828A4FF6EF731A4082827047CA
:1026600021B1828A42F00802828204E0828A4FF617
:10267000F7731A408282704721B1828942F4004286
:10268000828103E08289C2F30E028281704721B108
:10269000828A42F40062828204E0828A4FF2FF73EF
:1026A0001A4082827047828A4FF6FB731A408282F8
:1026B000828A0A438282704721B1828A42F00202F2
:1026C000828204E0828A4FF6FD731A40828270474C
:1026D00002460020B1F5007F00D100BF13880B40F7
:1026E0000BB1012000E00020704701F40072B2F548
:1026F000007F00D100BFCA430280704770B5024618
:10270000002400230025002040F66A16B14200D1C3
:1027100000BFC1F3421501F01F03012606FA03F3BF
:10272000012D02D19689334006E0022D02D1168A8E
:10273000334001E0968A33400C12012606FA04F475
:102740001688344013B10CB1012000E0002070BDA8
:1027500010B50022002340F66A14A14200D100BF48
:102760000A1201249440A3B2DC43048010BD00008F
:10277000003801400044004000480040004C004048
:10278000005000400CB50020019000906C4800689B
:1027900040F480306A49086000BF6948006800F46E
:1027A000003000900198401C0190009818B90198E1
:1027B000B0F5A06FF1D16248006800F4003010B1AC
:1027C0000120009001E0002000900098012843D1F2
:1027D0005C48006840F010005A49086008460068EC
:1027E00020F0030008600846006840F0020008601E
:1027F0005348406852494860084640684860084667
:10280000406840F4806048600846406820F47C10CE
:1028100048600846406840F4E81048600846006890
:1028200040F08070086000BF4548006800F000700C
:102830000028F9D04248406820F003004049486031
:102840000846406840F00200486000BF3C484068CD
:1028500000F00C000828F9D10CBD10B5FFF792FF6D
:1028600010BD10B53648006840F0010034490860DA
:1028700008464068344908403149486008460068C5
:10288000324908402E4908600846006820F480203C
:1028900008600846406820F4FE0048604FF41F00BE
:1028A0008860FFF7DAFF4FF000602949086010BD2B
:1028B00010B5002100200022214B5B6803F00C01C1
:1028C00021B1042906D0082928D107E0214B224C48
:1028D000236027E01F4B204C236023E0184B5B68EC
:1028E00003F47010164B5B6803F48032022303EB91
:1028F000904022B9194B4343174C23600DE0104B15
:102900005B6803F4003323B1144B4343124C236040
:1029100003E0104B4343104C236003E00D4B0E4C7F
:10292000236000BF00BF064B5B68C3F303130C4C6E
:10293000E15C094B1B68CB40074C236010BD0000D5
:1029400000100240002002400000FFF8FFFFF6FEEA
:1029500008ED00E000127A001400002000093D009C
:102960001800002010B5FEF729FC4FF48030FEF768
:1029700045FCFEF782FC0446012C1FD11020FDF718
:10298000A5FF0220FDF78EFF4FF4E0112004FEF7B3
:102990009DFC0020FEF7B7FC0020FEF7C6FCA0025D
:1029A000FEF7BAFC0120FEF79DFC00BF3920FEF7C0
:1029B00048FC0028FAD00220FEF797FC10BD10B5A5
:1029C0004FF4C060FDF7AEFB10BDFFF7CBFFFFF784
:1029D000F6FF01F01BF9054800F025F900F05DF95C
:1029E00002E0024800F036F9FBE700007800002022
:1029F000704700BFFEE700BFFEE700BFFEE700BF75
:102A0000FEE7704770477047704700007047CB483B
:102A10000068012803D00120C84980310860704750
:102A2000C6480068012803D10020C44980310860ED
:102A30007047C248001F0068012803D00120BF4929
:102A40007C3108607047BD48001F0068012803D131
:102A50000020BA497C310860704710B5B8488079C9
:102A600030B90020B74908604FF47A7000F087FC55
:102A70000120B349887110BD10B5B1488079012893
:102A800005D1B04908604FF47A7000F016FD0020BF
:102A9000AB49887110BD0020A949487070470120DA
:102AA000A74948707047024608467047A44989788C
:102AB00041F00201A24A917011460871704710B5A9
:102AC000A1480068401CA04908609D48006B006850
:102AD00030B19B48006B0068401E9949096B086043
:102AE0009748406920B196484069401E9449486122
:102AF0009348806920B192488069401E904988615E
:102B00008F48C06920B18E48C069401E8C49C86199
:102B10008B48006A20B18A48006A401E88490862D2
:102B20008948006889490968401AB0F5FA7F10D9C8
:102B300085480068854908608148007C012804D1E7
:102B40001021834800F03AFA03E001207B497831F4
:102B5000086001F088FD10BD7E48002101604160E1
:102B60000181704710B54FF4165001F0D5F802F00E
:102B70007EFCFFF7F1FF78487849086010BD704788
:102B80007047C169E9B94FF4FA71C1616B490968CD
:102B9000012900D100E00021426B11706749091F33
:102BA0000968012900D100E00021426B5170816A5F
:102BB0008978426BC2F80210816A0978426BC2F8C8
:102BC00006107047416B827802F01002102A05D17E
:102BD000827822F01002827000BF00BF704710B5EB
:102BE00000F0BFFE02235EA20021084600F039FF7C
:102BF00002235DA21946002000F033FF02235CA2ED
:102C00000421002000F02DFF02235CA206210020F9
:102C100000F027FF10BD0FB5002100910191029136
:102C200003910FBD704710B50446C82001F02BF882
:102C300001F056FA0121544801F06DFB524801F0B1
:102C400030FB00F07BF900F0A3F900F010FA00F07F
:102C5000B3F810BD10B504462046FFF791FFE06AB7
:102C600000F0D2F910BD10B5032002F010FC10BD29
:102C700010B5002002F00BFC10BD704710B500200D
:102C8000304908604FF4487000F0FDFF01203F49D3
:102C9000C1F8B40102F0FBFB10BD10B500202949BA
:102CA00008604FF4487000F0EEFF01203749C1F88A
:102CB000B4014FF4487000F0E6FF0020214908609D
:102CC0004FF4487000F0DFFF01203049C1F8B40133
:102CD0004FF4487000F0D7FF022002F0D8FB00202C
:102CE00018490860C82000F0CEFF01202749C1F82C
:102CF000B401C82000F0C7FF00202449C1F8B40186
:102D0000C82000F0C0FF01202049C1F8B401C8204C
:102D100000F0B9FF00201D49C1F8B401C82000F03F
:102D2000B2FF01201949C1F8B401C82000F0ABFF7F
:102D300010BD01200149843108607047188121428B
:102D400078000020B4012242B000002004010020DD
:102D5000000C0140F80A0020A72A0008CC08002037
:102D6000CEC2B6C83A000000CAAAB6C83A000000EF
:102D7000B9E2D5D5C7BFB6C83A000000D1CCCEED78
:102D8000C5A8B6C83A000000BF2A000800002242C9
:102D900008B501210420FEF77FFB4FF48050ADF809
:102DA000000010208DF8030003208DF80200694612
:102DB0006148FEF7B5F808BD10B5FFF7E9FF4FF41D
:102DC00080515D48FEF759F910BD08B54FF48050A9
:102DD000ADF8000048208DF8030069465648FEF71C
:102DE0009FF808BD08B54FF48050ADF800001020E2
:102DF0008DF8030003208DF8020069464E48FEF767
:102E00008FF808BD70B50025002427E000BF4FF4FF
:102E100080514948FEF717F90028F8D0282000F023
:102E20000EFF4FF480514448FEF70DF901280ED1F2
:102E300000BF4FF480514048FEF705F90128F8D053
:102E4000C4F1070101208840C0B2054304E0C4F189
:102E50000701012088408543601CC4B2082CD5DBE3
:102E6000284670BD70B504460025FFF7BBFF4FF440
:102E700080513148FEF703F9122000F004FF4FF4AF
:102E800080512D48FEF7F9F81E2000F0D8FEFFF71C
:102E90009CFF4FF480512848FEF7D5F8002848D110
:102EA0004FF47A7503E06D1E0A2000F0C8FE4FF45F
:102EB00080512148FEF7C7F808B9002DF3D10DB9AC
:102EC000002070BD4FF47A7503E06D1E0A2000F0FB
:102ED000B6FE4FF480511848FEF7B5F8012801D12D
:102EE000002DF2D10DB90020EBE7FFF78BFF20702A
:102EF000FFF788FF6070FFF785FFA070FFF782FF84
:102F0000E070FFF77FFF2071FFF76CFF4FF48051F7
:102F10000948FEF7B2F8207861780844A17808449F
:102F2000E17808442179884201D10120C9E70020D5
:102F3000C7E70020C5E700000008014008B50121EF
:102F40001020FEF7A9FA4FF40050ADF80000102051
:102F50008DF8030001208DF8020069461948FDF73D
:102F6000DFFF01210820FEF797FA1020ADF80000DE
:102F70008DF8030001208DF8020069461248FDF724
:102F8000CFFF0120114908601149C1F8900108BD27
:102F900008B501210820FEF77FFA0820ADF80000EF
:102FA00010208DF8030001208DF8020069460648C4
:102FB000FDF7B6FF00200749086008BDC2684A4017
:102FC000C260704700100140000C0140B401224271
:102FD000008021428C81214210B54FF4165000F040
:102FE000F0FE10BD70B505460C46194922468868AA
:102FF000294603F079F901201549087008468480B4
:1030000070BD4280C160704770B50446207800F002
:103010000100D8B10020207000250EE0E26852F8CF
:103020003500A16803F0A8F928B9E16801EBC501F2
:103030004868804704E0681C85B26088A842EDDCDF
:1030400000BF1E220021A06803F05AF970BD0000E5
:10305000080100200020F7490860F749C1F8A801DD
:10306000F44928390860F449C1F88001704708B56F
:1030700001210820FEF710FA10208DF8030003202C
:103080008DF802004FF40060ADF800006946EB488F
:10309000FDF746FF4FF48060ADF800006946E74851
:1030A000FDF73EFF0220ADF800006946E348FDF75A
:1030B00037FF0120ADF800006946E048FDF730FF1A
:1030C000FFF7C8FF08BD10B5DD480078DC49097876
:1030D000491CDB4A117008287DD2DFE800F0041299
:1030E000202F3E4D5B690120D24908600020D24963
:1030F000C1F8A801CF4928390860CF49C1F880013B
:103100006AE00120CB490860CB49C1F8A801002042
:10311000C84928390860C849C1F880015CE000202E
:10312000C44908600120C449C1F8A8010020C14970
:1031300028390860C049C1F880014DE00020BD4930
:1031400008600120BC49C1F8A801BA4928390860C3
:103150000020B949C1F880013EE00020B54908606F
:10316000B549C1F8A8010120B249283908600020FA
:10317000B149C1F880012FE00020AE490860AE4996
:10318000C1F8A8010120AB4928390860AA49C1F853
:10319000800121E00020A7490860A749C1F8A801E3
:1031A000A449283908600120A349C1F8800113E02F
:1031B0000020A349087001209E49086000209E4914
:1031C000C1F8A8019B492839086001209A49C1F833
:1031D000800101E0FFE700BF00BF022000F053FDC7
:1031E00010BD9748007896490978491E944A117095
:1031F00008287DD2DFE800F00415233241505E6CD0
:1032000007208F49087001208A49086000208A49F8
:10321000C1F8A8018749283908608749C1F88001A9
:1032200067E00120834908608349C1F8A8010020B4
:103230008049283908608049C1F8800159E00020A0
:103240007C49086001207C49C1F8A8010020794927
:10325000283908607849C1F880014AE000207549A2
:10326000086001207449C1F8A80172492839086032
:1032700000207149C1F880013BE000206D490860E1
:103280006D49C1F8A80101206A4928390860002069
:103290006949C1F880012CE0002066490860664950
:1032A000C1F8A80101206349283908606249C1F8C2
:1032B00080011EE000205F4908605F49C1F8A80155
:1032C0005C492839086001205B49C1F8800110E0A1
:1032D00001205849086000205749C1F8A801554904
:1032E0002839086001205449C1F8800101E0FFE756
:1032F00000BF00BF704700B5FFF7ACFE00BD514BEB
:103300001874D9609A60704710B54E48C06858B1BB
:103310004C48C068401E4B49C8600846C06818B990
:1033200000200874FFF7E7FF46484068401C454905
:103330004860084640688968B0FBF1F201FB120062
:1033400080B94048007C58B1012802D0022806D13B
:1033500002E0FFF7B8FE04E0FFF743FF01E000BF23
:1033600000BF00BF374840684FF47A71B0FBF1F2FC
:1033700001FB120010B900203249486010BD10B5A1
:10338000044696E02E4800782D490978491C2C4ABD
:103390001170082874D2DFE800F00412202F3E5785
:1033A000657401202349086000202349C1F8A80161
:1033B0002049283908602049C1F8800174E00120C3
:1033C0001C4908601C49C1F8A80100201949283986
:1033D00008601949C1F8800166E0002015490860BD
:1033E00001201549C1F8A8010020124928390860B8
:1033F0001149C1F8800157E000200E490860012002
:103400000D49C1F8A8010B492839086000200A4974
:10341000C1F8800148E00020064908600649C1F86B
:10342000A801012003492839086000200249C1F899
:10343000800139E0AC81214200802142000C014032
:1034400018010020C809002000206649086066496C
:10345000C1F8A80101206349283908606249C1F810
:10346000800121E000205F4908605F49C1F8A801A0
:103470005C492839086001205B49C1F8800113E0EC
:1034800011E00020594908700120564908600020C9
:103490005549C1F8A801534928390860012052490B
:1034A000C1F8800100E000BF00BF022000F0EBFB8C
:1034B000641E002C3FF766AF10BD10B504468CE0CB
:1034C0004A48007849490978491E484A1170082835
:1034D0007DD2DFE800F00415233241505E6C0720F6
:1034E0004249087001203F49086000203E49C1F868
:1034F000A8013C49283908603B49C1F8800167E0D0
:103500000120384908603849C1F8A8010020354930
:10351000283908603449C1F8800159E00020314958
:10352000086001203049C1F8A80100202D49283940
:1035300008602D49C1F880014AE00020294908604F
:1035400001202949C1F8A80126492839086000202E
:103550002549C1F880013BE000202249086022494A
:10356000C1F8A80101201F492839086000201E4920
:10357000C1F880012CE000201A4908601A49C1F8FE
:10358000A80101201749283908601749C1F88001AE
:103590001EE00020134908601349C1F8A801114931
:1035A0002839086001201049C1F8800110E001208D
:1035B0000C49086000200C49C1F8A80109492839C4
:1035C000086001200849C1F8800101E0FFE700BF61
:1035D00000BF022000F057FB641E002C3FF770AFC5
:1035E00010BD0000AC812142008021421801002062
:1035F00008B501210820FDF74FFF4FF40040ADF85A
:10360000000010208DF8030003208DF802006946A9
:10361000FB48FDF785FC4FF40041F948FDF72DFD0F
:1036200001210820FDF738FF4FF48040ADF800007D
:1036300010208DF8030003208DF802006946F04841
:10364000FDF76EFC4FF48041ED48FDF716FD08BD17
:1036500008B54FF40040ADF8000003208DF80200DB
:1036600010208DF803006946E548FDF759FC08BDB8
:1036700008B54FF40040ADF8000003208DF80200BB
:1036800048208DF803006946DD48FDF749FC08BD78
:1036900010B5FFF7DDFF0120DA490860DA49C1F80B
:1036A000B801022000F0CBFA0020D64908600220C1
:1036B00000F0C5FA0020D449C1F8B801022000F09A
:1036C000BEFA10BD10B50120CE49091F08600020C8
:1036D000CD49C1F8BC01022000F0B1FA0120C9496E
:1036E0000860022000F0ABFA10BD10B50024FFF70F
:1036F000BFFF0120C349091F0860022000F09FFAA4
:1037000006E0641CFA2C03DDFFF7DCFF012010BD8E
:10371000BC48803800680028F3D1BA49091F086006
:10372000022000F08CFA0020F1E770B50446FFF7A4
:103730008FFF00251FE00020B249091F086002200A
:1037400000F07DFA04F0800018B10120AD49086056
:1037500002E00020AB4908600120AA49091F086067
:10376000022000F06CFA0020A749C1F8B8016006F9
:10377000040E681CC5B2082DDDDB70BD70B50120DC
:10378000A0490860022000F05AFA00251BE06006FC
:10379000040E00209B49091F0860022000F04FFA28
:1037A00001209949C1F8B801022000F048FA8021AF
:1037B0009348FDF748FC10B144F0010401E004F027
:1037C000FE04681CC5B2082DE1DB00208D49091FED
:1037D0000860022000F033FA204670BD10B50446A0
:1037E000FFF756FF7820FFF7A0FFFFF77EFF0020CE
:1037F000FFF79BFFFFF779FF2046FFF796FFFFF7E4
:1038000074FFFFF75FFF10BD10B50446FFF740FFE0
:103810007820FFF78AFFFFF768FF4020FFF785FF5A
:10382000FFF763FF2046FFF780FFFFF75EFFFFF71C
:1038300049FF10BD10B5FFF7DBFE642000F023FA4E
:10384000AE20FFF7CBFF2020FFF7C8FF1020FFF7C7
:10385000C5FFB020FFF7C2FFC820FFF7BFFF002061
:10386000FFF7BCFF1020FFF7B9FF4020FFF7B6FFBE
:103870008120FFF7B3FFFF20FFF7B0FFA120FFF784
:10388000ADFFA620FFF7AAFFA820FFF7A7FF3F2064
:10389000FFF7A4FFA420FFF7A1FFD320FFF79EFFAF
:1038A0000020FFF79BFFD520FFF798FFF020FFF7E0
:1038B00095FFD920FFF792FF2220FFF78FFFDA2034
:1038C000FFF78CFF1220FFF789FFDB20FFF786FF51
:1038D0002020FFF783FF8D20FFF780FF1420FFF7E4
:1038E0007DFFAF20FFF77AFF10BD10B58D20FFF7E9
:1038F00075FF1420FFF772FFAF20FFF76FFF10BDB9
:1039000070B504460D4605F1B001C8B2FFF766FF79
:10391000102141EA1410FFF761FF04F00F0141F09C
:103920000100FFF75BFF70BD70B50646002415E08F
:1039300004F1B001C8B2FFF751FF0020FFF74EFFBE
:103940001020FFF74BFF002504E03046FFF75CFF37
:10395000681CC5B2802DF8DB601CC4B2082CE7DB04
:1039600070BD10B50020FFF7DFFF10BD2DE9F04757
:103970000646894617469A464FF00008002400255F
:10398000BAF1010F03D0BAF1020F67D125E020E0B0
:10399000785D203800F0FF087E2E04DD002609F156
:1039A000010000F0FF0949463046FFF7A9FF002457
:1039B00009E008EB4801154A02EB4101085DFFF7F9
:1039C00023FF601CC4B2062CF3DBB01DC6B2681C1A
:1039D000C5B2785D0028DBD140E03BE0785D20385F
:1039E00000F0FF08782E04DD002609F1010000F048
:1039F000FF0949463046FFF783FF002410E000002E
:103A0000000C0140BC81214200802142E86800088E
:103A100004EB08117A4A505CFFF7F6FE601CC4B252
:103A2000082CF5DB09F10100C1B23046FFF768FF51
:103A3000002408E004EB08110831714A505CFFF7DC
:103A4000E3FE601CC4B2082CF4DB06F10800C6B229
:103A5000681CC5B2785D0028C0D100BF00BFBDE8BA
:103A6000F0872DE9F05F0746884616469B464FF0E3
:103A7000000A00240025A146BBF1010F03D0BBF1D1
:103A8000020F25D125E020E0705D203800F0FF0A0C
:103A90007E2F04DD002708F1010000F0FF084146F9
:103AA0003846FFF72DFF002409E00AEB4A01554A8A
:103AB00002EB4101085DFFF7A7FE601CC4B2062CB3
:103AC000F3DBB81DC7B2681CC5B2705D0028DBD13E
:103AD00093E08DE0705D7F2833DA705D203800F070
:103AE000FF0A782F04DD002708F1010000F0FF082D
:103AF00041463846FFF704FF002407E004EB0A11B3
:103B00003F4A505CFFF780FE601CC4B2082CF5DB16
:103B100008F10100C1B23846FFF7F2FE002408E0C8
:103B200004EB0A110831364A505CFFF76DFE601C49
:103B3000C4B2082CF4DB07F10800C7B2681CC5B298
:103B400056E000244CE004EBC4002F4951F820005B
:103B50000078715D884241D104EBC4002A4951F8D4
:103B600020004178681C305C814237D1702F04DD21
:103B7000002708F1010000F0FF0841463846FFF732
:103B8000BFFE4FF000090DE004EBC4011E4A02EB3A
:103B90008101091D11F80900FFF736FE09F1010046
:103BA00000F0FF09B9F1100FEEDB08F10100C1B21E
:103BB0003846FFF7A5FE0DE004EBC401124A02EB04
:103BC0008101091D11F80900FFF71EFE09F101002E
:103BD00000F0FF09B9F1200FEEDB03E0601CC4B276
:103BE000152CB0DB00BF07F11000C7B2A81CC5B28E
:103BF000705D00287FF46EAF00BF00BFBDE8F09F8E
:103C0000106B0008E86800081C01002010B56FF078
:103C10000400FCF7D6FA2E4800682E49B0FBF1F0FC
:103C20002D4908700846007800EB4001C1EBC01038
:103C30004FF6FF7101EAC0002849088010BD014617
:103C4000254A12784A434FF0E0235A6100229A61D4
:103C50001A46126942F001021A6100BF4FF0E022D9
:103C6000106900F001021AB100F48032002AF5D088
:103C70004FF0E022126922F001024FF0E0231A61B6
:103C800000229A6170470146144A12884A434FF055
:103C9000E0235A6100229A611A46126942F0010239
:103CA0001A6100BF4FF0E022106900F001021AB162
:103CB00000F48032002AF5D04FF0E022126922F0A1
:103CC00001024FF0E0231A6100229A617047000060
:103CD0001400002000127A00B6080020B808002066
:103CE00070B504460D46E1B2DB48FEF783FC00BF29
:103CF0004021D948FEF7ECFC0028F9D0204670BDE1
:103D000010B500BF2021D448FEF7E2FC0128F9D00D
:103D1000D148FEF773FC10BD10B586B004460121F2
:103D200044F20400FDF7B8FBCB48FEF727FB4FF445
:103D30000070ADF8140003208DF8160018208DF8DF
:103D4000170005A9C548FDF7EBF84FF48060ADF802
:103D5000140004208DF8170005A9C048FDF7E0F80D
:103D600025208DF8000000208DF8010001208DF83D
:103D700002008DF803006846FCF7D9F90194002091
:103D8000ADF80800ADF80A00ADF80C00ADF8100071
:103D90000C20ADF80E0001A9AF48FEF732FB01225E
:103DA00040F22551AC48FEF7C4FB012240F2244109
:103DB000A948FEF7BEFB0121A748FEF7AEFB06B0FF
:103DC00010BD10B586B0044601210420FDF764FB48
:103DD00001214804FDF76DFBA148FEF7CFFA04204E
:103DE000ADF8100003208DF8120018208DF8130094
:103DF00004A99A48FDF794F80820ADF810000420B3
:103E00008DF8130004A99548FDF78AF80094002066
:103E1000ADF80400ADF80600ADF80800ADF80C00F0
:103E20000C20ADF80A0069468D48FEF7EAFA012237
:103E300040F225518A48FEF77CFB012240F22441E2
:103E40008748FEF776FB26208DF8140003208DF8B6
:103E500015008DF8160001208DF8170005A8FCF755
:103E600066F901217E48FEF758FB06B010BD10B57B
:103E700086B0044601218804FDF71BFB01210820C0
:103E8000FDF70AFB7748FEF779FA4FF48060ADF84A
:103E9000140003208DF8160018208DF8170005A9CE
:103EA0007148FDF73DF84FF40060ADF814000420B0
:103EB0008DF8170005A96C48FDF732F827208DF81A
:103EC000000003208DF801008DF8020001208DF81C
:103ED00003006846FCF72BF901940020ADF80800B8
:103EE000ADF80A00ADF80C00ADF810000C20ADF8EC
:103EF0000E0001A95B48FEF784FA012240F2255129
:103F00005848FEF716FB012240F224415548FEF7BF
:103F100010FB01215348FEF700FB06B010BD70B541
:103F200004460D4629462046FEF764FB00BF4021AB
:103F30002046FEF7CDFB0028F9D070BD70B50546D0
:103F40000C4603E021782846FFF7E9FF14F8011B2F
:103F50000029F7D170BD2DE9F04107460D46164600
:103F6000002405E0295D3846FFF7D9FF601C84B2C4
:103F7000B442F7DBBDE8F08108B540F22551364880
:103F8000FEF7BCFB60B13448FEF738FB3749384ACE
:103F90001288885436480088401C3549088011E052
:103FA00040F224412C48FEF7A9FB58B12A48FEF7FD
:103FB00025FB00902E4801882C4800F09FFB002034
:103FC0002B49088008BD08B540F225512448FEF76A
:103FD00095FB60B12248FEF711FB2649264A12885C
:103FE000885425480088401C2349088011E040F28D
:103FF00024411B48FEF782FB58B11948FEF7FEFA30
:1040000000901D4801881B48FEF7ECFF00201A496C
:10401000088008BD08B540F225511248FEF76EFB36
:1040200060B11048FEF7EAFA1449154A128888541C
:1040300013480088401C124908800CE040F22441DB
:104040000848FEF75BFB30B10648FEF7D7FA009050
:1040500000200B49088008BD0038014000080140DD
:104060000044004000480040000C0140DC090020F2
:10407000BA0800200E0A0020BC0800202E0A0020EA
:10408000BE0800207FB505460C4601210846FDF715
:1040900010FAADF80850ADF804400020ADF80A0061
:1040A000ADF8060001A94FF08040FDF72DFB01227D
:1040B00011469007FDF79FFE1C208DF800000020A0
:1040C0008DF8010003208DF8020001208DF8030017
:1040D0006846FCF72CF801218807FDF771FE7FBDCB
:1040E00010B540F2CF216320FFF7CCFFAC21C248CE
:1040F00002F030F910BD10B50121C048FEF729F9D2
:1041000038B10121BD48FEF735F90021BB48FDF764
:1041100057FE10BD7FB505460C4601210420FDF772
:10412000C8F9ADF80450ADF800400020ADF8060025
:10413000ADF802006946B148FDF7E6FA01221146E2
:10414000AE48FDF758FE0121AC48FDF739FE1E20B0
:104150008DF80C0000208DF80D0002208DF80E0067
:1041600001208DF80F0003A8FBF7E1FF7FBD10B51C
:1041700001218807FEF7EDF8002844D001218807C7
:10418000FEF7F8F8002431E09B48001D00EB041016
:10419000007B012828D19848001D00EB04104068DE
:1041A000401C9549091D01EB041148609248001D0F
:1041B00000EB041041689048001D00EB041080687B
:1041C000814211D300218C48001D00EB0410416096
:1041D0008948001D00EB0410006828B18649091DBC
:1041E00001EB041108688047601CC4B28248008853
:1041F000A04201DD0A2CC7DB7F48D0F8A800401C94
:104200007D49C1F8A80010BD10B501217C48FEF71A
:10421000A0F8002844D001217948FEF7ABF800242B
:1042200031E07548001D00EB0410007B012828D107
:104230007148001D00EB04104068401C6E49091DC8
:1042400001EB041148606C48001D00EB041041684C
:104250006948001D00EB04108068814211D30021E1
:104260006548001D00EB041041606348001D00EB31
:104270000410006828B16049091D01EB04110868A9
:104280008047601CC4B25C480088A04201DD0A2C53
:10429000C7DB5948D0F8A800401C5749C1F8A8000E
:1042A00010BD0246002110E05348001D00EB011034
:1042B0000068904207D101234F48001D00EB011018
:1042C000037300207047481C81B24B480088884225
:1042D00001DD0A29E8DB4FF0FF30F3E70246002159
:1042E00010E04548001D00EB01100068904207D126
:1042F00000234148001D00EB0110037300207047AC
:10430000481C81B23C480088884201DD0A29E8DB6C
:104310004FF0FF30F3E70246374800880A2812DAE8
:1043200035480388001D00EB031081603248038884
:10433000001D00EB031002602F480088401C2E4B2C
:104340001880002070474FF0FF30FBE702462A48F4
:1043500000880A2812DA28480388001D00EB0310A1
:10436000816025480388001D00EB0310026022488D
:104370000088401C204B1880002070474FF0FF3011
:10438000FBE7F0B5A9B006460025A02101A801F081
:10439000E1FF002417E01848001D00EB041000683E
:1043A000B0420ED001A800EB05111348001D00EB30
:1043B000041090E88C00C06881E88C00C860681C1C
:1043C000C5B2601C84B20C480088A04201DD0A2CF2
:1043D000E1DB00240AE00848001D00EB041101A8FD
:1043E00000EB04178DCF8DC1601C84B20A2CF2DB68
:1043F0000148058029B0F0BD4C0A002000080040AB
:104400000004004000B585B001214802FDF744F8E2
:1044100001208DF80500002003904FF460200290E9
:104420000020009001208DF810008DF804006946EE
:104430005948FBF70CFF4FF44040FCF791FF07236E
:10444000012211465448FBF79AFF01224FF40871EC
:104450005148FBF73EFF01214F48FBF724FF4E4830
:10446000FBF743FF02E04C48FBF74EFF4A48FBF7DF
:1044700041FF0028F7D100BF4748FBF74AFF00285B
:10448000FAD101214448FBF74EFF05B000BD08B545
:1044900012208DF8000001208DF801008DF8020037
:1044A0008DF803006846FBF742FE08BD08B5012100
:1044B0000420FCF7F1FF0220ADF8000000208DF889
:1044C000030069463548FCF72BFD08BD10B5FFF722
:1044D000EDFFFFF7DCFFFFF795FF10BD00B58BB0D8
:1044E00001210846FCF7CBFF2D48FCF7B1F82A481C
:1044F0004C3000902B480190002002900120039046
:1045000000200490802005904000069080000790D5
:10451000202008900002099000200A906946204857
:10452000FCF738F901211E48FCF75FF90BB000BD1C
:1045300010B504E01848FBF789FF1B4908804FF4C9
:1045400008711548FCF76CF80128F3D04FF4087196
:104550001148FCF777F810BD1349098801807047AE
:104560002DE9F05F82461048008802F04DF883463E
:1045700002F063F8064600220C4B01F0D3FF04461C
:104580000B4A0C4B01F0CEFF804602F069F8CAF8E6
:104590000000BDE8F09F0000002401400008014039
:1045A00008000240C0080020C20800200000543F5C
:1045B0000AD7A3703D0AD73F2DE9F05F04460D46A8
:1045C000934600262F46A846A946AA4604B11DB91F
:1045D0004FF0FF30BDE8F09F002638E0601C805DA2
:1045E000132830D2DFE800F02425262F2F27282992
:1045F0002A2F2F2F2F2B2D2E2C0A170038783949D0
:1046000008703948006828B1611C885D3549364A10
:104610001268904718E0787832494870324800684C
:1046200028B1611C885D2F492F4A126890470BE022
:104630000AE009E008E007E006E005E004E003E046
:1046400002E001E000E000BF00BF701CC6B22078AD
:10465000B042C3DC0020BDE7704722480021016062
:1046600041600181704721480068401C1F49086073
:1046700070471E4800687047012080F3138800BF10
:1046800000BF1B48006800F4E0601A490843001DA1
:1046900017490860BFF34F8F00BF00BFFEE77047A8
:1046A000704770B505460E4600240DB9601E70BDFA
:1046B00000240DE0295D1048FFF731FC022C06D3E1
:1046C000285DFF2803D155210B48FFF728FC641C07
:1046D000B442EFD3002400E0641CB442FCD3304663
:1046E000E5E70000F80A0020CC080020C4080020FC
:1046F0000CED00E00000FA050038014070B50446FA
:104700000D4600260CB9701E70BD2A462146FE4893
:1047100001F08CFD0646AE4202D04FF0FF30F3E7C9
:104720003046F1E7014611B94FF0FF3070470020E5
:1047300008604860FF20087048700020F6E770B5F8
:1047400004460D4614B94FF0FF3070BD2021EF48EC
:1047500001F000FE2A462146EC48801C01F0E1FDF4
:10476000EA483D38A0F85750012180F83E10FFF785
:1047700080FFE6493D39C1F859000020E5E70246CF
:1047800000210020137803F0010303B1491C1378C2
:10479000C3F3400303B1491C09B9002007E001F04D
:1047A00007030BB9C80802E0012303EBD1007047EF
:1047B0002DE9F84305460C4616464FF00008002741
:1047C000B9460020009028788DF800000DB104B1A2
:1047D0001EB94FF0FF30BDE8F8836846FFF7CFFF02
:1047E000804608F1010081449DF8000000F00100BE
:1047F00090B111212278601C81542078401C2070D7
:1048000043466A1C0121384601F073FB08B10120C0
:1048100000E0002030707F1C9DF80000C0F34000D5
:1048200090B112212278601C81542078401C2070A5
:1048300043466A1C0121384601F05BFB08B10120A8
:1048400000E0002070707F1C0020C4E72DE9F041DB
:1048500004460D460026002704B11DB94FF0FF3075
:10486000BDE8F081FFF705FF0746287821788842E8
:104870000BD0A6483D3890F8AD0020F00100401C58
:10488000A2493D3981F8AD000126687861788842F7
:104890000BD09E483D3890F8AD0020F00200801CFF
:1048A0009A493D3981F8AD000126D5F80200D4F8C7
:1048B0000210884212D096480068381A41F270718E
:1048C00088420BD391483D3890F8AD0020F00400A9
:1048D000001D8E493D3981F8AD000126D5F806004E
:1048E000D4F80610884212D089480068381A41F27C
:1048F000707188420BD385483D3890F8AD0020F0A8
:104900000800083081493D3981F8AD000126012EAB
:1049100003D1FFF7AEFE7E4908603046A0E72DE9DF
:10492000FC4706460F4690464FF00009002500243C
:104930000020009075483D3890F8AD008DF80000DB
:10494000641C06B11FB94FF0FF30BDE8FC876F480B
:104950003D3890F8AD0000F0010038B133780DEB30
:1049600004020121284601F086FA6D1C67483D3893
:1049700090F8AD00C0F3400038B173780DEB04023D
:104980000121284601F077FA6D1C15B94FF0000996
:1049900008E005F0070010B94FEAD50902E0012050
:1049A00000EBD509B9F1010F04D90DEB040049461C
:1049B00001F0FCF94C4455483D3890F8AD00C0F387
:1049C000800068B1D6F802200021012001F007FA2A
:1049D000C0B28DF805009DF805100DF80410641C98
:1049E0004A483D3890F8AD00C0F3C00068B1D6F831
:1049F00006200021012001F0F2F9C0B28DF8060076
:104A00009DF806100DF80410641C40483D38002144
:104A100080F8AD10C8F8004069463846D8F8002044
:104A200001F07FFC002090E72DE9F04780460C461E
:104A300017461D46089E94F800900CB105B11EB9AA
:104A40004FF0FF30BDE8F087B8F1000F64D11421BA
:104A50002E48203001F07EFCB9F1050F33D0B9F1BA
:104A6000110F03D0B9F1120F54D10EE0274A793259
:104A7000A2F15901601CFFF79BFE012023493D393B
:104A8000087000250020306045E020483D386178FE
:104A900080F8AD1000F1B202111FC030FFF73FFFE8
:104AA00068B91A483D38D0F8B22000F1AE01681C50
:104AB00001F037FC132028700520306002E04FF031
:104AC000FF30BFE727E07A1E611C1048243801F050
:104AD00028FC781E0D493D39C1F8310010210B48E2
:104AE0003D3890F85D205E3081545E3890F85D006E
:104AF000401C06493D3981F85D00032008700025FF
:104B00000020306007E007E01A0C00203F0B002077
:104B1000D008002000BF00BF002093E72DE9F04F30
:104B20008DB005468B469046994600200C908246F3
:104B3000002600276C46BBF1000F03D1401E0DB0CC
:104B4000BDE8F08FB9F1010F04D12E7AB01D4044B9
:104B500087B202E008F1050087B2FF2004F8010BDC
:104B600004F8010B381204F8010B04F8017B2879D2
:104B7000401C04F8010B687904F8010B002004F8CC
:104B8000010B04F8019B4FF0080AB9F1010F0CD199
:104B900004F8016B0AF1010A0DEB0A00324605F137
:104BA000090101F0BEFBB2443444B8F1000F05D056
:104BB0000DEB0A004246594601F0B3FB391D684629
:104BC00000F028FF0146F81C0DF80010391D68465A
:104BD000FFF767FD0C900C98002802DA6FF00100D7
:104BE000ADE70020ABE72DE9F04387B006460F465E
:104BF00090464FF0000901AC08F1060085B227B9D4
:104C00004FF0FF3007B0BDE8F083FF2004F8010B40
:104C100004F8010B281204F8010B04F8015B0520CD
:104C200004F8010BF94890F83510D0F83500401C15
:104C3000F64AC2F8350004F8011B002004F8010B05
:104C400004F8010B04F8016B424639460DF10D00E2
:104C500001F067FB291D01A800F0DCFE0146E81CFD
:104C600001AA1154291D01A8FFF71BFD8146B9F1C6
:104C7000000F02DA6FF00100C4E7291D01A8FFF759
:104C80005EFD0020BEE770B50446FFF7F2FC054666
:104C90000026DE49C0312046FFF7D8FD012817D194
:104CA000DA4AB232111F2046FFF739FE38B9D74829
:104CB000D0F8B22000F1AE011420FFF794FFD348E2
:104CC000803021680164616841642189A0F848103E
:104CD000CF48B5FBF0F100FB115018BBCD48006880
:104CE000A8421FD0FF220121C848AD3001F02BFBA4
:104CF000C64AB232111F2046FFF711FE38B9C34829
:104D0000D0F8B22000F1AE011420FFF76CFFBF48CD
:104D1000803021680164616841642189A0F84810ED
:104D2000BC480560304601F0B7FD70BD2DE9FE4F6F
:104D300080460E4617464FF0000B00200290814639
:104D40008246002534460090B8F1000F01D006B12C
:104D50001FB94FF0FF30BDE8FE8F404601F0EAF981
:104D600000F0FF0ABAF1000F02D14FF0FF30F2E776
:104D70004FF000095DE0012201A9404601F005FA6B
:104D80008346BBF1000F52D0A3480078FF281FD103
:104D90009DF80400FF281BD1A048007848B9FF20E7
:104DA0002070607002209E49088001209B49087095
:104DB00034E09B480088042830DD99480088A842E8
:104DC0002CD0FF202070607002209549088025E0DB
:104DD00091480078FF2803D19DF8040055281DD084
:104DE0008E480078012819D19DF804008C49098863
:104DF00060548B480088401C894908800846008818
:104E000004280BDD0094009C608800F016FE001D55
:104E100085B283480088A84200D10CE09DF80400C8
:104E20007D4908707F480078401C7E49087009F170
:104E30000109D1459FDB00BF79480088042823DDA4
:104E400077480088A8421FD175480188204600F0A5
:104E5000E1FD029072480088401E215C0298814268
:104E60000FD12A462146304601F05BFA3D800020F2
:104E70006A4908706A4908806A490870664908707A
:104E800069E76FF0010066E7012064E710B50024D0
:104E90005E4890F83E0000B910BD5C48B0F857106D
:104EA0003F30FFF7FEFB0446FFF7E3FB5749C1F82D
:104EB000590000BFF0E770B50446544D3F3514B9B2
:104EC0004FF0FF3070BD2879401C2179884204D111
:104ED00020214E483D3001F03DFA0020F2E73EB57A
:104EE000044600250CB9681E3EBD2068009060682D
:104EF00001909DF80400401CC0B28DF8040005200C
:104F000000F09BFDADF802000921684600F082FD2B
:104F10008DF8080009216846FFF7C3FB05462846BF
:104F2000E2E710B5394890F83E0001281BD1374818
:104F300090F83D00022811DAFFF79BFB3349D1F8C6
:104F40005910401AC8280ED9FFF7A0FF2F4890F833
:104F50003D00401C2D4981F83D0004E020212B48F4
:104F60003D3001F0F7F910BD30B59DB00446002585
:104F700014B9681E1DB030BD6846FFF7D3FB022090
:104F80008DF8040060798DF8050027A103C9CDE9EB
:104F9000020128A103C9CDE9040129A103C9CDE972
:104FA00008012AA103C9CDE9060120222AA10AA8E5
:104FB00001F0B7F9202231A10DF1520001F0B1F951
:104FC0000020CDF84A00CDF84E009DF851008DF834
:104FD00051009DF8510040F002018DF85110002061
:104FE00000F02BFDADF848006F2000F026FDADF875
:104FF00002007321684600F00DFD8DF872007321E8
:105000006846FFF74EFB05462846B3E7020B002033
:10501000C0270900D4080020DC080020D8080020A0
:10502000DA080020DD0800203030303030303034F5
:1050300000000000303030303030303200000000EE
:105040003033303330303030000000003033303116
:1050500030313030000000006537663965616661C7
:10506000353762613463643139646331656633377F
:105070006230346138313236000000003835626108
:10508000666535376163633934656563383330632A
:105090003631393566323835313061310000000043
:1050A000FEB504460D4600260CB9701EFEBD6846CE
:1050B000FFF738FB12208DF8040060798DF80500A9
:1050C000062000F0BAFCADF802008DF808500A2165
:1050D000684600F09FFC8DF809000A216846FFF73A
:1050E000E0FA06463046E1E770B50446254614B9B5
:1050F0004FF0FF3070BDFE48A9680160E96841606B
:10510000298A0181A97C8172A0F1CB01B1F8CB0081
:1051100000F093FCF649CB39A1F8CB00D1F8D300CD
:1051200000F098FCF249CB39C1F8D3000E21F048C9
:10513000CB3890F8852086308154863890F88500E9
:10514000401CEB49CB3981F8850004200870002011
:10515000D0E710B5FFF78DFA044600BFFFF789FAD4
:10516000001BB0F5167FF9D9FFF786FA10BD10B510
:10517000044614B94FF0FF3010BD208900F05DFCEB
:105180002081DC480078C0F38000217AC1F38001DF
:10519000884250D0207AC0F3800030B3207A00F0EB
:1051A000010070B10021D248CB3890F871207230E4
:1051B0008154723890F87100401CCD49CB3981F888
:1051C0007100207AC0F34000A8B30121C848CB3851
:1051D00090F8712072308154723890F87100401C40
:1051E000C349CB3981F8710025E0207A00F0010035
:1051F00070B10021BE48CB3890F8712072308154D4
:10520000723890F87100401CB949CB3981F87100AF
:10521000207AC0F3400070B10221B548CB3890F835
:10522000712072308154723890F87100401CB0497E
:10523000CB3981F87100AF480078C0F3C000217A03
:10524000C1F3C00188422AD0207AC108A948007859
:1052500061F3C300A7490870207AC0F3C00078B199
:105260000321A348CB3890F87120723081547238F2
:1052700090F87100401C9E49CB3981F871000EE016
:1052800004219B48CB3890F87120723081547238D9
:1052900090F87100401C9649CB3981F8710095480F
:1052A0000078C0F30010217AC1F3001188422AD09F
:1052B000207A01098F48007861F304108D49087045
:1052C000207AC0F3001078B105218948CB3890F8D6
:1052D000712072308154723890F87100401C8449FA
:1052E000CB3981F871000EE006218148CB3890F867
:1052F000712072308154723890F87100401C7C49E2
:10530000CB3981F871007B480078C0F34010217AD6
:10531000C1F3401188422AD0207A410975480078AB
:1053200061F3451073490870207AC0F3401078B1DA
:1053300007216F48CB3890F8712072308154723851
:1053400090F87100401C6A49CB3981F871000EE079
:1053500008216748CB3890F8712072308154723838
:1053600090F87100401C6249CB3981F871006148A6
:105370004078C0F3C001607AC0F3C00081422AD0F7
:10538000607AC1085B48407861F3C30059494870AE
:10539000607AC0F3C00078B10B215548CB3890F843
:1053A000712072308154723890F87100401C50495D
:1053B000CB3981F871000EE00C214D48CB3890F8C4
:1053C000712072308154723890F87100401C484945
:1053D000CB3981F8710047484078C0F30011607AFA
:1053E000C0F3001081422AD0607A01094148407818
:1053F00061F304103F494870607AC0F3001078B13F
:1054000009213B48CB3890F87120723081547238B2
:1054100090F87100401C3649CB3981F871000EE0DC
:105420000A213348CB3890F8712072308154723899
:1054300090F87100401C2E49CB3981F871000D2184
:105440002B48CB3890F8712072308154723890F824
:105450007100401C2649CB3981F87100607A00F058
:10546000070081F8CA0002200870002084E610B509
:105470003020214908602148C860084600F03CFE01
:105480004FF48C711A48CB3800F064FF10BD30B572
:1054900087B004460025062C7DD2DFE804F00335F2
:1054A0005E89B0D701A8FFF73DF90B208DF8080001
:1054B0000F48CB3890F83510D0F83500401C0C4A16
:1054C000CB3AC2F83500C8B28DF80900052000F0CB
:1054D000B4FAADF80600092101A800F09BFA8DF896
:1054E0000C00092101A8FFF7DCF80546092107E0B7
:1054F000CD0B0020DE0800201A0C00202A0C002012
:1055000001A8FFF71CF9C9E004A8FFF70BF909206F
:105510008DF81400F84890F83510D0F83500401C8C
:10552000F54AC2F83500C8B28DF815008DF818405C
:10553000062000F082FAADF812000A2104A800F05B
:1055400069FA8DF819000A2104A8FFF7AAF80546A0
:105550000A2104A8FFF7F3F8A0E004A8FFF7E2F897
:1055600009208DF81400E44890F83510D0F8350083
:10557000401CE14AC2F83500C8B28DF815008DF81C
:105580001840062000F059FAADF812000A2104A8CC
:1055900000F040FA00E080E08DF819000A2104A82C
:1055A000FFF77FF805460A2104A8FFF7C8F875E061
:1055B00001A8FFF7B7F813208DF80800CE4890F83F
:1055C0003510D0F83500401CCB4AC2F83500C8B2BF
:1055D0008DF80900052000F030FAADF80600092129
:1055E00001A800F017FA8DF80C00092101A8FFF7B7
:1055F00058F80546092101A8FFF7A1F84EE001A8D7
:10560000FFF790F815208DF80800BB4890F835108A
:10561000D0F83500401CB84AC2F83500C8B28DF841
:105620000900052000F009FAADF80600092101A8DB
:1056300000F0F0F98DF80C00092101A8FFF731F80E
:105640000546092101A8FFF77AF827E001A8FFF72E
:1056500069F829208DF80800A74890F83510D0F88F
:105660003500401CA44AC2F83500C8B28DF80900C4
:10567000052000F0E2F9ADF80600092101A800F0CC
:10568000C9F98DF80C00092101A8FFF70AF80546B1
:10569000092101A8FFF753F800E000BF00BF28462A
:1056A00007B030BD3EB500246846FFF73BF8172031
:1056B0008DF80400904890F83510D0F83500401C63
:1056C0008D4AC2F83500C8B28DF80500052000F0FB
:1056D000B4F9ADF802000921684600F09BF98DF895
:1056E000080009216846FEF7DCFF044609216846E8
:1056F000FFF725F83EBD3EB500246846FFF712F8D7
:1057000021208DF804007C4890F83510D0F8350041
:10571000401C794AC2F83500C8B28DF80500002057
:105720008DF80800062000F088F9ADF802000A2183
:10573000684600F06FF98DF809000A216846FEF707
:10574000B0FF04460A216846FEF7F9FF3EBD70B57A
:105750000446254614B94FF0FF3070BD412205F1D3
:1057600008016548D73000F0DCFD0F21624890F851
:1057700099209A3081549A3890F89900401C5E49DB
:1057800081F89900052008700020E6E72DE9F04334
:105790008FB00546002600270020029001900024CB
:1057A000814680461DB9401E0FB0BDE8F083FFF76B
:1057B000B8FB02AA5049491C5048FFF7B7FA064601
:1057C000002E75D1002701E0781C87B2BDF80800D3
:1057D0008742F9DB484C641C20790F2848D00ADC4A
:1057E0000E285FD2DFE800F05E165E1A5E5E3C3186
:1057F0005E5E3D5E3E35182845D006DC11283DD062
:1058000014283CD016284DD12DE0222842D02A2839
:1058100048D129E02046FFF7A7FB48E001A8009007
:1058200008F10900BDF808301A1A3348093000EBB6
:10583000080103AB4846FFF7F7F828B9E37903A955
:105840002046019AFFF76AF931E02046FFF747FB4F
:105850002DE02046FFF743FB2046FFF788FC26E0BB
:1058600000BF00BF00BF00BF2046FFF724FB1EE0C3
:105870002046FFF734FBFFF76CFC18E017E02046EA
:10588000FFF719FB13E02046FFF715FB2046FFF753
:105890002BFC0CE02046FFF70EFB2046FFF757FFDE
:1058A00005E005E002212046FFF7FAFB00BF0BE010
:1058B00016F1020F08D1104C641C01212046FFF79D
:1058C000EFFB6FF001006FE70B48007806284FD21E
:1058D000DFE800F04E031625303F0020064908702F
:1058E0000A22B631A1F15900FEF766FE14210248E2
:1058F0005D3000F02FFD3CE0020B00201A0C002070
:105900000020434908700122CA31A1F15900FEF775
:1059100053FE14213E48713000F01CFD29E00020A8
:105920003B4908700846D0F8312019315D30FEF748
:1059300043FE1EE00020364908700C22CB31A1F155
:105940004600FEF739FE14213148853000F002FD93
:105950000FE000202E4908704122D731A1F13E000E
:10596000FEF72AFE41212A48993000F0F3FC00E0BE
:1059700000BF00BF2846FFF786F9002014E72DE995
:10598000F04186B006460F464FF000086C46B81D41
:1059900085B226B94FF0FF3006B0BDE8F081FF2098
:1059A00004F8010B04F8010B281204F8010B04F8A9
:1059B000015B052004F8010B154890F83510D0F86C
:1059C0003500401C124AC2F8350004F8011B0020C3
:1059D00004F8010B04F8010B062004F8010B3A4609
:1059E00031460DF1090000F09CFC291D684600F0CD
:1059F00011F80146E81C0DF80010291D6846FEF755
:105A000050FE8046291D6846FEF799FE0020C3E738
:105A1000020B002010B502460024002302B109B990
:105A2000002010BD022303E0D05C2044C4B25B1C04
:105A3000481E9842F8D82046F3E701B581B000200F
:105A40000090694601AA5078087010784870BDF837
:105A500000000CBD0146080601F47F4240EA022026
:105A600001F47F0240EA122040EA1160704710B54D
:105A7000024600230024302A05DB392A03DCA2F188
:105A80003000C3B20EE0412A05DB462A03DCA2F156
:105A90003700C3B206E0612A04DB662A02DCA2F109
:105AA0005700C3B2302905DB392903DCA1F13000EE
:105AB000C4B20EE0412905DB462903DCA1F1370021
:105AC000C4B206E0612904DB662902DCA1F15700BB
:105AD000C4B204EB0310C0B210BD70B5044600257B
